:020000040000FA
:0400000021EF0FF0ED
:10060000003F065B4F666D7D077F6F777C395E79B3
:1006100071554C445253584142597341626173744D
:100620006563656E646F2E2E2E2E005155414E541B
:100630004F53204C4954524F533F0041475541526C
:1006400044452E2E2E2E2E2E005155414C204F204B
:1006500056414C4F523F0041424153544543494457
:100660004F0042454D2056494E444F5300504F5382
:10067000544F203639200056454943554C4F2000F1
:100680004741534F4C494E410044494553454C0066
:0B069000414C434F4F4C00522400002F
:10069C00DFEC0FF02A50011809E12B500218D8B4E6
:1006AC005AEF03F05CEF03F04BEF07F0DFEC0FF0C9
:1006BC0001C02AF002C02BF0CAEC0FF0CAEC0DF00E
:1006CC002DEF07F0800EBBEC0FF0800E0F6E060EB8
:1006DC00106EF5EC0DF0030E026EE80E016E6BEC75
:1006EC000DF0C00EBBEC0FF0490E0F6E060E106E27
:1006FC00F5EC0DF0030E026EE80E016E6BEC0DF0D6
:10070C00010EBBEC0FF0000E026E000E016E20EC21
:10071C000EF001C01CF002C01DF0000E1DBEFF0E3D
:10072C001E6E1F6E800EBBEC0FF0970E0F6E060E3A
:10073C00106EF5EC0DF0E80E056E030E066E000E55
:10074C00076E000E086E1CC001F01DC002F01EC02A
:10075C0003F01FC004F029EC0CF001C00EF002C035
:10076C000FF003C010F004C011F00A0E126E000E50
:10077C00136E000E146E000E156E7BEC0CF00E500A
:10078C00300FACEC0FF0640E056E000E066E000E12
:10079C00076E000E086E1CC001F01DC002F01EC0DA
:1007AC0003F01FC004F029EC0CF001C00EF002C0E5
:1007BC000FF003C010F004C011F00A0E126E000E00
:1007CC00136E000E146E000E156E7BEC0CF00E50BA
:1007DC00300FACEC0FF00A0E056E000E066E000E1C
:1007EC00076E000E086E1CC001F01DC002F01EC08A
:1007FC0003F01FC004F029EC0CF001C00EF002C095
:10080C000FF003C010F004C011F00A0E126E000EAF
:10081C00136E000E146E000E156E7BEC0CF00E5069
:10082C00300FACEC0FF01CC00EF01DC00FF01EC052
:10083C0010F01FC011F00A0E126E000E136E000E97
:10084C00146E000E156E7BEC0CF00E50300FACECF1
:10085C000FF0000E106E010E0F6E000E126E000ED9
:10086C00116ED3EC0EF03250176E186ADFEC0FF0ED
:10087C001750011809E118500218D8B448EF04F0C9
:10088C004AEF04F04EEF04F0DFEC0FF00150326E43
:10089C0032AC53EF04F055EF04F057EF04F05BEF7C
:1008AC0004F04FEC0AF089EF03F0010EBBEC0FF0F3
:1008BC003B0E0F6E060E106EF5EC0DF0070E026E71
:1008CC00D00E016E6BEC0DF0010EBBEC0FF01B0E9D
:1008DC000F6E060E106EF5EC0DF0070E026ED00EBC
:1008EC00016E6BEC0DF0010EBBEC0FF0770E0F6E82
:1008FC00060E106EF5EC0DF0000E106E010E0F6E64
:10090C00000E126E000E116ED3EC0EF0570E0F6E21
:10091C00060E106EF5EC0DF0340E836E640E35EC95
:10092C000DF0050E026EDC0E016E6BEC0DF0000E80
:10093C0035EC0DF0010EBBEC0FF04BEF07F0010E98
:10094C00BBEC0FF0800EBBEC0FF0900E0F6E060E92
:10095C00106EF5EC0DF0030E026EE80E016E6BECF2
:10096C000DF0C00EBBEC0FF02B0E0F6E060E106EC2
:10097C00F5EC0DF0050E026EDC0E016E6BEC0DF05D
:10098C00010EBBEC0FF0000E026E000E016E20EC9F
:10099C000EF001C01CF002C01DF0000E1DBEFF0EBB
:1009AC001E6E1F6E800EBBEC0FF0970E0F6E060EB8
:1009BC00106EF5EC0DF0E80E056E030E066E000ED3
:1009CC00076E000E086E1CC001F01DC002F01EC0A8
:1009DC0003F01FC004F029EC0CF001C00EF002C0B3
:1009EC000FF003C010F004C011F00A0E126E000ECE
:1009FC00136E000E146E000E156E7BEC0CF00E5088
:100A0C00300FACEC0FF0640E056E000E066E000E8F
:100A1C00076E000E086E1CC001F01DC002F01EC057
:100A2C0003F01FC004F029EC0CF001C00EF002C062
:100A3C000FF003C010F004C011F00A0E126E000E7D
:100A4C00136E000E146E000E156E7BEC0CF00E5037
:100A5C00300FACEC0FF00A0E056E000E066E000E99
:100A6C00076E000E086E1CC001F01DC002F01EC007
:100A7C0003F01FC004F029EC0CF001C00EF002C012
:100A8C000FF003C010F004C011F00A0E126E000E2D
:100A9C00136E000E146E000E156E7BEC0CF00E50E7
:100AAC00300FACEC0FF01CC00EF01DC00FF01EC0D0
:100ABC0010F01FC011F00A0E126E000E136E000E15
:100ACC00146E000E156E7BEC0CF00E50300FACEC6F
:100ADC000FF0000E106E010E0F6E000E126E000E57
:100AEC00116ED3EC0EF03250176E186ADFEC0FF06B
:100AFC001750011809E118500218D8B488EF05F006
:100B0C008AEF05F08EEF05F0DFEC0FF00150326E3E
:100B1C0032AC93EF05F095EF05F097EF05F09BEFF6
:100B2C0005F04FEC0AF0C9EF04F0010EBBEC0FF02E
:100B3C003B0E0F6E060E106EF5EC0DF0070E026EEE
:100B4C00D00E016E6BEC0DF0010EBBEC0FF01B0E1A
:100B5C000F6E060E106EF5EC0DF0070E026ED00E39
:100B6C00016E6BEC0DF0010EBBEC0FF0770E0F6EFF
:100B7C00060E106EF5EC0DF0000E106E010E0F6EE1
:100B8C00000E126E000E116ED3EC0EF0570E0F6E9F
:100B9C00060E106EF5EC0DF0340E836E640E35EC13
:100BAC000DF0050E026EDC0E016E6BEC0DF0000EFE
:100BBC0035EC0DF0010EBBEC0FF04BEF07F0010E16
:100BCC00BBEC0FF0800EBBEC0FF0890E0F6E060E17
:100BDC00106EF5EC0DF0030E026EE80E016E6BEC70
:100BEC000DF0C00EBBEC0FF02B0E0F6E060E106E40
:100BFC00F5EC0DF0030E026EE80E016E6BEC0DF0D1
:100C0C00010EBBEC0FF0C00EBBEC0FF0000E026E31
:100C1C00000E016E20EC0EF001C01CF002C01DF0A5
:100C2C00000E1DBEFF0E1E6E1F6E800EBBEC0FF075
:100C3C00970E0F6E060E106EF5EC0DF0E80E056EAD
:100C4C00030E066E000E076E000E086E1CC001F03F
:100C5C001DC002F01EC003F01FC004F029EC0CF004
:100C6C0001C00EF002C00FF003C010F004C011F070
:100C7C000A0E126E000E136E000E146E000E156E20
:100C8C007BEC0CF00E50300FACEC0FF0640E056EDC
:100C9C00000E066E000E076E000E086E1CC001F0F2
:100CAC001DC002F01EC003F01FC004F029EC0CF0B4
:100CBC0001C00EF002C00FF003C010F004C011F020
:100CCC000A0E126E000E136E000E146E000E156ED0
:100CDC007BEC0CF00E50300FACEC0FF00A0E056EE6
:100CEC00000E066E000E076E000E086E1CC001F0A2
:100CFC001DC002F01EC003F01FC004F029EC0CF064
:100D0C0001C00EF002C00FF003C010F004C011F0CF
:100D1C000A0E126E000E136E000E146E000E156E7F
:100D2C007BEC0CF00E50300FACEC0FF01CC00EF046
:100D3C001DC00FF01EC010F01FC011F00A0E126E75
:100D4C00000E136E000E146E000E156E7BEC0CF084
:100D5C000E50300FACEC0FF0000E106E010E0F6E3B
:100D6C00000E126E000E116ED3EC0EF03250176E98
:100D7C00186ADFEC0FF01750011809E1185002182F
:100D8C00D8B4CBEF06F0CDEF06F0D1EF06F0DFECE8
:100D9C000FF00150326E32ACD6EF06F0D8EF06F001
:100DAC00DAEF06F0DEEF06F04FEC0AF00CEF06F08F
:100DBC00010EBBEC0FF03B0E0F6E060E106EF5EC39
:100DCC000DF0070E026ED00E016E6BEC0DF0010EE5
:100DDC00BBEC0FF01B0E0F6E060E106EF5EC0DF04B
:100DEC00070E026ED00E016E6BEC0DF0010EBBEC1B
:100DFC000FF0770E0F6E060E106EF5EC0DF0000E68
:100E0C00106E010E0F6E000E126E000E116ED3ECF2
:100E1C000EF0570E0F6E060E106EF5EC0DF0340E34
:100E2C00836E640E35EC0DF0050E026EDC0E016E59
:100E3C006BEC0DF0000E35EC0DF0010EBBEC0FF071
:100E4C004BEF07F0010EBBEC0FF04BEF07F0BFECD4
:100E5C000CF0176E186A1850000AD8B438EF07F067
:100E6C004BEF07F01750440AD8B4E5EF05F0080A29
:100E7C00D8B4A5EF04F01F0AD8B428EF07F0060A7F
:100E8C00D8B468EF03F04BEF07F0120002BE5AEF34
:100E9C0007F0025007E1080E015CD8B058EF07F0DC
:100EAC005AEF07F084EF07F003500410D8B461EF49
:100EBC0007F063EF07F073EF07F001C005F0010EC8
:100ECC00066E052A6CEF07F0D8900636052E6AEFF1
:100EDC0007F00650921272EF08F001C005F0010EF7
:100EEC00066E052A7CEF07F0D8900636052E7AEFB1
:100EFC0007F00650FF0A921672EF08F002BE92EF4E
:100F0C0007F0025007E1100E015CD8B090EF07F02B
:100F1C0092EF07F0C0EF07F003500410D8B499EF2C
:100F2C0007F09BEF07F0ADEF07F001C005F0F80EEE
:100F3C000526010E066E052AA6EF07F0D890063698
:100F4C00052EA4EF07F00650931272EF08F001C0C3
:100F5C0005F0F80E0526010E066E052AB8EF07F00F
:100F6C00D8900636052EB6EF07F00650FF0A9316FA
:100F7C0072EF08F002BECEEF07F0025007E1180E38
:100F8C00015CD8B0CCEF07F0CEEF07F0FCEF07F028
:100F9C0003500410D8B4D5EF07F0D7EF07F0E9EF02
:100FAC0007F001C005F0F00E0526010E066E052AAD
:100FBC00E2EF07F0D8900636052EE0EF07F006506A
:100FCC00941272EF08F001C005F0F00E0526010E28
:100FDC00066E052AF4EF07F0D8900636052EF2EFD0
:100FEC0007F00650FF0A941672EF08F002BE0AEFE3
:100FFC0008F0025007E1200E015CD8B008EF08F0B1
:10100C000AEF08F038EF08F003500410D8B411EFD1
:10101C0008F013EF08F025EF08F001C005F0E80E1A
:10102C000526010E066E052A1EEF08F0D89006362E
:10103C00052E1CEF08F00650951272EF08F001C057
:10104C0005F0E80E0526010E066E052A30EF08F0B5
:10105C00D8900636052E2EEF08F00650FF0A95168E
:10106C0072EF08F002BE46EF08F0025007E1280EBE
:10107C00015CD8B044EF08F046EF08F072EF08F0CE
:10108C0003500410D8B44DEF08F04FEF08F061EFA7
:10109C0008F001C005F0E00E0526010E066E052ACB
:1010AC005AEF08F0D8900636052E58EF08F0065087
:1010BC00961272EF08F001C005F0E00E0526010E45
:1010CC00066E052A6CEF08F0D8900636052E6AEFEE
:1010DC0008F00650FF0A9616120002BE81EF08F0C7
:1010EC00025007E1080E015CD8B07FEF08F081EFE9
:1010FC0008F0ABEF08F003500410D8B488EF08F0F8
:10110C008AEF08F09AEF08F001C005F0010E066EA8
:10111C00052A93EF08F0D8900636052E91EF08F0CB
:10112C000650801299EF09F001C005F0010E066E11
:10113C00052AA3EF08F0D8900636052EA1EF08F08B
:10114C000650FF0A801699EF09F002BEB9EF08F0BD
:10115C00025007E1100E015CD8B0B7EF08F0B9EF00
:10116C0008F0E7EF08F0F80E0126FF0E02220350FC
:10117C000410D8B4C4EF08F0C6EF08F0D6EF08F0AE
:10118C0001C005F0010E066E052ACFEF08F0D890CD
:10119C000636052ECDEF08F00650811299EF09F0B6
:1011AC0001C005F0010E066E052ADFEF08F0D8909D
:1011BC000636052EDDEF08F00650FF0A811699EF72
:1011CC0009F002BEF5EF08F0025007E1180E015CC1
:1011DC00D8B0F3EF08F0F5EF08F023EF09F0F00EBC
:1011EC000126FF0E022203500410D8B400EF09F0C0
:1011FC0002EF09F012EF09F001C005F0010E066EC6
:10120C00052A0BEF09F0D8900636052E09EF09F0E8
:10121C000650821299EF09F001C005F0010E066E1E
:10122C00052A1BEF09F0D8900636052E19EF09F0A8
:10123C000650FF0A821699EF09F002BE31EF09F051
:10124C00025007E1200E015CD8B02FEF09F031EF0E
:10125C0009F05FEF09F0E80E0126FF0E02220350A1
:10126C000410D8B43CEF09F03EEF09F04EEF09F052
:10127C0001C005F0010E066E052A47EF09F0D89063
:10128C000636052E45EF09F00650831299EF09F04A
:10129C0001C005F0010E066E052A57EF09F0D89033
:1012AC000636052E55EF09F00650FF0A831699EF06
:1012BC0009F002BE6DEF09F0025007E1280E015C47
:1012CC00D8B06BEF09F06DEF09F099EF09F0E00E73
:1012DC000126FF0E022203500410D8B478EF09F057
:1012EC007AEF09F08AEF09F001C005F0010E066EE5
:1012FC00052A83EF09F0D8900636052E81EF09F008
:10130C000650841299EF09F001C005F0010E066E2B
:10131C00052A93EF09F0D8900636052E91EF09F0C7
:10132C000650FF0A8416120002BEA8EF09F0025004
:10133C0007E1080E015CD8B0A6EF09F0A8EF09F0A0
:10134C00BCEF09F001C003F0010E046E032AB1EFEB
:10135C0009F0D8900436032EAFEF09F00450801436
:10136C00056E0550016E026A4EEF0AF002BECAEF1E
:10137C0009F0025007E1100E015CD8B0C8EF09F07B
:10138C00CAEF09F0E0EF09F001C003F0F80E0326F4
:10139C00010E046E032AD5EF09F0D8900436032E03
:1013AC00D3EF09F004508114056E0550016E026AEA
:1013BC004EEF0AF002BEEEEF09F0025007E1180EF4
:1013CC00015CD8B0ECEF09F0EEEF09F004EF0AF095
:1013DC0001C003F0F00E0326010E046E032AF9EF90
:1013EC0009F0D8900436032EF7EF09F0045082145C
:1013FC00056E0550016E026A4EEF0AF002BE12EF46
:10140C000AF0025007E1200E015CD8B010EF0AF090
:10141C0012EF0AF028EF0AF001C003F0E80E0326E1
:10142C00010E046E032A1DEF0AF0D8900436032E29
:10143C001BEF0AF004508314056E0550016E026A0E
:10144C004EEF0AF002BE36EF0AF0025007E1280E0A
:10145C00015CD8B034EF0AF036EF0AF04CEF0AF02A
:10146C0001C003F0E00E0326010E046E032A41EFC7
:10147C000AF0D8900436032E3FEF0AF0045084147F
:10148C00056E0550016E026A4EEF0AF001680268A3
:10149C001200000E236E000E226E000E0E6E000E59
:1014AC000D6E0EBE63EF0AF00E5009E1050E0D5CD9
:1014BC00D8A063EF0AF065EF0AF067EF0AF0C8EF07
:1014CC000AF00DC00AF0030E0A26010E0B6E000E78
:1014DC000C6E0A2A75EF0AF0D8900B360C360A2ED1
:1014EC0072EF0AF00BC007F00CC008F048EC0EF0DD
:1014FC00000E026E0A0E016E9AEC09F001500210F9
:10150C00D8B48BEF0AF08DEF0AF0A0EF0AF00DC003
:10151C000AF0010E0B6E000E0C6E0A2A99EF0AF0FF
:10152C00D8900B360C360A2E96EF0AF00B5022127E
:10153C000C502312000E026E090E016E9AEC09F08B
:10154C0001500210D8B4ADEF0AF0AFEF0AF0C4EFBF
:10155C000AF00DC00AF0050E0A26010E0B6E000EE5
:10156C000C6E0A2ABDEF0AF0D8900B360C360A2EF8
:10157C00BAEF0AF00B5022120C5023120D4A0E2A0D
:10158C0057EF0AF02250201807E123502118D8A455
:10159C00D2EF0AF0D4EF0AF0D7EF0AF03106DDEF04
:1015AC000AF0010E316E22C020F023C021F0315020
:1015BC00D8A4E3EF0AF0E5EF0AF0E9EF0AF020C057
:1015CC0024F021C025F01200000E0A6E08BEF3EFC5
:1015DC000AF0F1EF0AF0FDEF0AF0081E071E061ED6
:1015EC00056C000E062207220822010E0A6E04BEAC
:1015FC0004EF0BF002EF0BF00EEF0BF0041E031ECA
:10160C00021E016C000E022203220422010E0A1A91
:10161C00000E0B6E000E0C6E000E0D6E000E0E6E9C
:10162C000550061007100810D8B41FEF0BF021EF6F
:10163C000BF057EF0BF0010E096E2BEF0BF0D8905F
:10164C000536063607360836092A08AE30EF0BF099
:10165C0032EF0BF025EF0BF0D8900B360C360D3625
:10166C000E360550015C06500258075003580850BE
:10167C000458D8A044EF0BF046EF0BF04FEF0BF0F3
:10168C000550015E0650025A0750035A0850045A7E
:10169C000B80D8900832073206320532092E32EF11
:1016AC000BF00A50D8B45DEF0BF05FEF0BF067EF67
:1016BC000BF00E1E0D1E0C1E0B6C000E0C220D22C0
:1016CC000E220BC001F00CC002F00DC003F00EC0D6
:1016DC0004F01200F0EC0EF06FEC0EF0CFEC0BF00F
:1016EC00CAEC0DF0E4EC0FF0CAEC0FF092EF0BF03B
:1016FC004FEC0AF0800EBBEC0FF0620E0F6E060E74
:10170C00106EF5EC0DF0C00EBBEC0FF06D0E0F6E05
:10171C00060E106EF5EC0DF0BFEC0CF0530AD8A4CD
:10172C009AEF0BF09CEF0BF07EEF0BF0130E026EAA
:10173C00880E016E9BEC0FF0B4EF0BF04EEC03F047
:10174C00010E1B6EC9EF0BF04FEC0AF0030E1B6E73
:10175C00C9EF0BF0000E1B6EC9EF0BF01B50196E8E
:10176C001A6A1A50000AD8B4BEEF0BF0B0EF0BF0A7
:10177C001950000AD8B4A4EF0BF0010AD8B4AAEFA0
:10178C000BF0B0EF0BF0D7EC0FF09CEF0BF000EF81
:10179C0000F0000E026E1C0E016E000E046E000EA8
:1017AC00036E4CEC07F0000E026E1D0E016E000E67
:1017BC00046E000E036E4CEC07F0B4EC0EF0000E51
:1017CC00026E0F0E016E09EC0FF0000E0B6E000E88
:1017DC000A6E030E62EC0FF0000E026E050E016E27
:1017EC0009EC0FF0000E0B6E000E0A6E030E62EC8D
:1017FC000FF0000E026EA00E016EE9EC0FF0000E61
:10180C000B6E000E0A6E030E62EC0FF0000E026EF1
:10181C00A00E016EE9EC0FF0000E0B6E000E0A6EBE
:10182C00020E62EC0FF0000E026E0A0E016E09EC55
:10183C000FF0280EBBEC0FF00C0EBBEC0FF0010EF2
:10184C00BBEC0FF01200000E096E000E0A6E000EBB
:10185C000B6E000E0C6E0550061007100810D8B455
:10186C003AEF0CF03CEF0CF072EF0CF0010E0D6E39
:10187C0046EF0CF0D89005360636073608360D2A9A
:10188C0008AE4BEF0CF04DEF0CF040EF0CF0D89095
:10189C0009360A360B360C360550015C06500258D8
:1018AC000750035808500458D8A05FEF0CF061EFB4
:1018BC000CF06AEF0CF00550015E0650025A07500E
:1018CC00035A0850045A0980D8900832073206325D
:1018DC0005320D2E4DEF0CF009C001F00AC002F0DC
:1018EC000BC003F00CC004F01200125013101410B3
:1018FC001510D8B484EF0CF086EF0CF0B6EF0CF0AA
:10190C00010E166E90EF0CF0D8901236133614367A
:10191C001536162A15AE95EF0CF097EF0CF08AEFF2
:10192C000CF012500E5C13500F58145010581550E8
:10193C001158D8A0A4EF0CF0A6EF0CF0AEEF0CF001
:10194C0012500E5E13500F5A1450105A1550115A53
:10195C00D8901532143213321232162E97EF0CF037
:10196C000EC00EF00FC00FF010C010F011C011F02F
:10197C001200000E056E000E046E04C001F0010E84
:10198C00026E000E036E012ACFEF0CF0D8900236D7
:10199C000336012ECCEF0CF0245002162550031602
:1019AC0002500310D8B4DDEF0CF0DFEF0CF0E9EFD0
:1019BC000CF0110E0424F66E060E0520F76E0800CE
:1019CC00F550FAEF0CF0044A052A05BEF7EF0CF0BF
:1019DC00055009E10A0E045CD8A0F7EF0CF0F9EF02
:1019EC000CF0C3EF0CF0000E1200000E066E000E91
:1019FC00056E03500410D8B406EF0DF008EF0DF08F
:101A0C0030EF0DF0010E076E10EF0DF0D89003368D
:101A1C000436072A04AE15EF0DF017EF0DF00CEF9E
:101A2C000DF0D890053606360350015C0450025870
:101A3C00D8A023EF0DF025EF0DF02AEF0DF0035099
:101A4C00015E0450025A0580D89004320332072EEE
:101A5C0017EF0DF005C001F006C002F012000A6E7F
:101A6C00010ECB24016E026A000E02220AC003F0A2
:101A7C00046A75EC0FF001C00BF002C00CF00BC047
:101A8C0001F00CC002F0000E046E190E036EFBEC9C
:101A9C000CF001C00BF002C00CF0FF0E0B16030E85
:101AAC000C160BC008F00CC009F0D89009320832A3
:101ABC00D890093208320850BB6E0BC008F0030EE8
:101ACC0008160838F00BBA121200000E046E000E45
:101ADC00036E91EF0DF0000E056E280E056479EF84
:101AEC000DF07BEF0DF07DEF0DF08FEF0DF0000E94
:101AFC00066E020E066485EF0DF087EF0DF089EF90
:101B0C000DF08CEF0DF0062A7FEF0DF0052A73EF28
:101B1C000DF0034A042A0150035C02500458D8A06B
:101B2C009AEF0DF09CEF0DF071EF0DF012000D6EB1
:101B3C000DC00CF00C3A0F0E0C160C50076E086A08
:101B4C0048EC0EF0000E026E1D0E016E0AC003F082
:101B5C000BC004F073EC08F093EC0EF00DC00CF01D
:101B6C000F0E0C160C50076E086A48EC0EF0000EA7
:101B7C00026E1D0E016E0AC003F00BC004F073EC74
:101B8C0008F093EC0EF01200000E026E180E016EAF
:101B9C00000E046E000E036E4CEC07F0000E026E8D
:101BAC00190E016E000E046E000E036E4CEC07F065
:101BBC00000E026E1A0E016E000E046E000E036E05
:101BCC004CEC07F0000E026E1B0E016E000E046E44
:101BDC00000E036E4CEC07F0B4EC0EF01200000E8D
:101BEC00146E000E136E0BEF0EF013500F24116ECB
:101BFC0014501020126E11C0F6FF12C0F7FF08002F
:101C0C00F550ACEC0FF0134A142A13500F24116E3C
:101C1C0014501020126E11C0F6FF12C0F7FF08000E
:101C2C00F5500009D8A41DEF0EF01FEF0EF0FBEFDE
:101C3C000DF01200C30EC216025007E1030E015C38
:101C4C00D8B02BEF0EF02DEF0EF031EF0EF001446B
:101C5C00E846FC0BC212C282C2B237EF0EF039EF6B
:101C6C000EF032EF0EF0C4CF03F0046A0350046E92
:101C7C00036AC3500326000E042203C001F004C003
:101C8C0002F01200000E026E080E016E000E046EC1
:101C9C00000E036E73EC08F0000E096E000E026E5F
:101CAC001E0E016E800E0714036E046A73EC08F0AE
:101CBC004DEC0FF0D89007360836092A070E096448
:101CCC006AEF0EF06CEF0EF054EF0EF038EC0FF0F4
:101CDC001200000E026E000E016E000E046E010E5C
:101CEC00036E4CEC07F0000E026E010E016E000E3E
:101CFC00046E010E036E4CEC07F0000E026E020E29
:101D0C00016E000E046E010E036E4CEC07F0C280E7
:101D1C000C0EC16EAA0EC06E1200000E026E1C0ECE
:101D2C00016E000E046E010E036E73EC08F0000ED3
:101D3C00026E050E016EE9EC0FF0000E026E1C0E29
:101D4C00016E000E046E000E036E73EC08F0000EB4
:101D5C00026E050E016EE9EC0FF01200000E026E21
:101D6C001F0E016E000E046E000E036E4CEC07F09D
:101D7C00000E026E080E016E000E046E000E036E55
:101D8C004CEC07F0000E026E1E0E016E000E046E7F
:101D9C00000E036E4CEC07F012000F501010D8A47C
:101DAC00DAEF0EF0DCEF0EF0E1EF0EF011500F0B4E
:101DBC00800FBBEC0FF00F041010D8A4E8EF0EF05E
:101DCC00EAEF0EF0EFEF0EF011500F0BC00FBBEC63
:101DDC000FF01200B4EC0EF0000E026E0A0E016E43
:101DEC00000E046E010E036E4CEC07F0000E026E3A
:101DFC00090E016E000E046E010E036E4CEC07F022
:101E0C000C0EC16E1200000E056E000E046E11EF6A
:101E1C000FF0044A052A0150045C0550800A036E39
:101E2C000250800A0358D8A01EEF0FF020EF0FF0DD
:101E3C000FEF0FF01200D00EF66E1F0EF76E000EA5
:101E4C00F86E0900F5CF33F00900F5CF34F000EE51
:101E5C001CF0170EEE6AE806FDE1000EF86E0001AC
:101E6C0070EF0BF0000E026E1F0E016E000E046E72
:101E7C00010E036E73EC08F0000E026E1F0E016E65
:101E8C00000E046E000E036E73EC08F01200000ED0
:101E9C00026E080E016E000E046E010E036E73ECE2
:101EAC0008F0000E026E080E016E000E046E000E9D
:101EBC00036E73EC08F012000C6E0CC007F0086A8D
:101ECC0048EC0EF0000E026E1D0E016E0AC003F0FF
:101EDC000BC004F073EC08F093EC0EF01200015000
:101EEC000302F3CF05F0F4CF06F001500402F350D7
:101EFC00062602500302F350062605C001F006C068
:101F0C0002F01200480E016EE80E026E010E036E16
:101F1C00000E046E0FC005F010C006F0076A086AC8
:101F2C00EAEC0AF00104CB6E1200D8900134036E77
:101F3C000234046E031E041E320E035E000E045A9D
:101F4C000450D76E03C0D6FFF29412000E6E000E32
:101F5C000B6E010E0A6E0E509DEC0DF0000E026E13
:101F6C00500E016EE9EC0FF012000E6E000E0B6EAF
:101F7C00000E0A6E0E509DEC0DF0000E026E020E5D
:101F8C00016E09EC0FF012009492030ECA12CA846F
:101F9C000C0EBA6E000E106E640E0F6E88EC0FF005
:101FAC001200F2A4DCEF0FF0DEEF0FF0D7EF0FF022
:101FBC00120024C001F025C002F01200080ED56EEC
:081FCC00D58E120001FF120086
:020000040020DA
:08000000FFFFFFFFFFFFFFFF00
:020000040030CA
:0E000000FF027100FF8380FF0FC00FE00F4072
:00000001FF
